:100000000C942D010C9455010C9455010C94550140
:100010000C9455010C9455010C9455010C94550108
:100020000C9455010C9455010C94D2060C94410784
:100030000C9455010C9455010C9455010C945501E8
:100040000C9455010C9455010C9455010C945501D8
:100050000C9455010C9455010C9455010C947309A2
:100060000C9455010C9455010C9455010C945501B8
:100070000C9455010C9455010C9455010C945501A8
:100080000C9455010C9455010C9455010C94550198
:100090000C9455010C9455010C9455010C94550188
:1000A0000C9455010C9455010C945501000000006E
:1000B000000000002A2B28000000000000000000C3
:1000C0000000000000000000000000002C9EB4A012
:1000D000A1A2A434A6A7A5AE362D3738271E1F200F
:1000E000212223242526B333B62EB7B89F848586D4
:1000F0008788898A8B8C8D8E8F9091929394959618
:100100009798999A9B9C9D2F3130A3AD3504050695
:100110000708090A0B0C0D0E0F10111213141516F7
:100120001718191A1B1C1DAFB1B0B5000000000054
:100130002300260029002C002F00000000020009E7
:100140000F0000030401000C00000000000000008C
:10015000000000000000000000080B000202020086
:10016000000904000001020200000524001001053E
:10017000240101010424020605240600010705816B
:100180000310004009040100020A000000070502F4
:100190000240000007058302400000040309041226
:1001A000010002EF020140412336800001010203F9
:1001B0000141726475696E6F204C4C43004172645A
:1001C00075696E6F204C656F6E6172646F00000020
:1001D0000000250028002B002E0031000000000048
:1001E000240027002A002D00300004040404040326
:1001F00004050202020204030202020206060606C7
:1002000006060404020202040404080201104080ED
:1002100040102040804080080204018040201002ED
:10022000011080102040402005010906A10185022F
:10023000050719E029E715002501750195088102D8
:100240009501750881039506750815002573050746
:10025000190029738100C000BD0911241FBECFEF12
:10026000DAE0DEBFCDBF11E0A0E0B1E0E4E6F7E107
:1002700002C005900D92AE33B107D9F721E0AEE38D
:10028000B1E001C01D92A03EB207E1F711E0CDE25E
:10029000D1E004C02197FE010E94AA0BCC32D10705
:1002A000C9F70E944F0A0C94B00B0C940000CF9336
:1002B000DF9390E0FC01E75FFD4F249186519E4F54
:1002C000FC0184918823C1F090E0880F991FFC0104
:1002D000E452FE4FC591D491FC01E253FE4FA5912B
:1002E000B4919FB7F8943881822F809583238883B7
:1002F000EC91E22BEC939FBFDF91CF910895CF93C8
:10030000DF93FC0181819091B101482F490F55275E
:10031000551F483051059CF5A281B381109709F50E
:100320002DEA31E03383228320812093AF01809333
:10033000B0018091B201820F80832091B301A22F7E
:10034000B091B4018A2F821B8917E8F481813D9115
:10035000C82FD0E0C45FDE4F38838F5F8183F2CF38
:10036000D90118962D913C91199721153105C1F7A6
:100370002DEA31E019963C932E931897D5CF80E063
:10038000DF91CF91089581E0FBCFFC0180915C016A
:10039000882311F13FB7F89482E08093E90020911F
:1003A000F200822F90E01816190614F481E090E014
:1003B000882339F0289844E640935B014091F1008E
:1003C0004083222339F02091F200211103C02BE653
:1003D0002093E8003FBF08958FEF9FEF0895CF93DC
:1003E000DF931F92CDB7DEB76983DC01ED91FC91FD
:1003F0000280F381E02D41E050E0BE016F5F7F4F4E
:1004000009950F90DF91CF91089583E08093E900E3
:100410008091F200882319F08AE38093E800089520
:10042000CF93DF931F92CDB7DEB7FC01848595850E
:1004300097FD08C02FEF3FEF358724870F90DF919E
:10044000CF910895CE0101960E94C501019719F43C
:10045000898190E0F3CF8FEF9FEFF0CF0F931F9341
:10046000CF93DF931F92CDB7DEB78C01FC0184855B
:10047000958597FF0BC0CE0101960E94C50101979B
:1004800071F4898190E0F80195878487F80184856B
:1004900095850F90DF91CF911F910F9108958FEF68
:1004A0009FEFF1CFFC018485958597FD0BC09FB729
:1004B000F89482E08093E9008091F2009FBF90E081
:1004C000019608959FB7F89482E08093E9008091A7
:1004D000F2009FBF90E00895409155015091560160
:1004E000209153013091540142175307B4F4909175
:1004F000E8009570E1F39091E80092FD19C08093B7
:10050000F100809155019091560101968F739927C2
:10051000892B19F48EEF8093E8008091550190911A
:1005200056010196909356018093550181E00895FC
:1005300080E00895EF92FF920F931F93CF93DF9384
:10054000F82E192FE62E042F81E0860F880F0E94C7
:100550006C0283E00E946C02CF2DD12FEC0EFD2E99
:10056000F11CCE15DF05B9F007FF13C0FE01849121
:100570000E946C02182F80E00E946C028123219659
:100580008111EFCFDF91CF911F910F91FF90EF90ED
:1005900008958881EDCF81E0F5CFDF92EF92FF9251
:1005A0000F931F93CF93DF93D82E8A01EB017B012A
:1005B000E40EF51ECE15DF0559F0D7FE12C0FE0180
:1005C00084910E946C0221968111F4CF0FEF1FEFEE
:1005D000C801DF91CF911F910F91FF90EF90DF90B5
:1005E00008958881EECF2FB7F89487708093E90043
:1005F0009091E800892F807295FF04C09091F200DD
:1006000080E4891B2FBF089583E00E94F30290E0ED
:100610000895615030F02091F100FC012083019693
:10062000F8CF289884E680935B01089580914B0170
:1006300081110DC082E08093470184E080934801DE
:1006400010924A011092490181E080934B0187E4A6
:1006500091E008950F931F93CF93DF931F92CDB72F
:10066000DEB782E0898342E450E069E571E080E82A
:100670000E94CD020E941603DC0112960D911C917E
:100680000115110589F0D801ED91FC910280F381EB
:10069000E02DBE016F5F7F4FC801099597FD04C033
:1006A000F80100851185ECCF89810F90DF91CF9102
:1006B0001F910F910895282F30E0F901E65CFE4F5D
:1006C0009491F901E75FFD4F849126513E4FF90166
:1006D0002491222309F45BC09923E9F091509F30C3
:1006E000D0F4E92FF0E0E958FC4F0C94AA0BA203D8
:1006F000A60386039A039E038B038B038B03A90334
:10070000AF03B303B703BD038B03C1039091800014
:100710009F7790938000E22FF0E0EE0FFF1FE45DE3
:10072000FE4FA591B491EC91E82381E090E089F52A
:1007300080E00895909180009F7DEBCF90918000A4
:10074000977FE7CF94B59F7794BDE5CF94B59F7D14
:10075000FBCF909190009F7790939000DCCF909189
:1007600090009F7DF9CF90919000977FF5CF909169
:10077000C0009F779093C000CECF9091C0009F7D26
:10078000F9CF9091C200977F9093C200C4CF80E0D0
:1007900090E008953FB7F89480914301909144010F
:1007A000A0914501B091460126B5A89B05C02F3FF9
:1007B00019F00196A11DB11D3FBFBA2FA92F982F87
:1007C0008827BC01CD01620F711D811D911D42E082
:1007D000660F771F881F991F4A95D1F708958F924A
:1007E0009F92AF92BF92CF92DF92EF92FF924B0116
:1007F0005C010E94CA036B017C010E94CA036C1950
:100800007D098E099F09683E734081059105A8F313
:1008100021E0821A9108A108B10888EEC80E83E091
:10082000D81EE11CF11C81149104A104B10429F724
:10083000FF90EF90DF90CF90BF90AF909F908F9000
:1008400008957F928F929F92AF92BF92CF92DF9244
:10085000EF92FF920F931F93CF93DF93C82E8B01DC
:100860007A0180915C01811110C08FEF9FEFDF91C1
:10087000CF911F910F91FF90EF90DF90CF90BF909D
:10088000AF909F908F907F9008958091590180FF45
:1008900005C08091E00082608093E000CE2DDF2DC6
:1008A000D12C8AEFB82E8C2D8770982E8C2D8072CB
:1008B000882E8C2D8074782E9AE3A92E209719F417
:1008C000DD2009F452C08C2D0E94F30281110AC070
:1008D000BA94BB2051F261E070E080E090E00E94A9
:1008E000EF03ECCF8C171D0611F00CF08C2F9FB787
:1008F000F8949092E9002091E80025FD02C09FBF86
:10090000DDCF282F30E0C21BD30B882029F0815087
:10091000A0F01092F100FBCFF801C7FC0AC0815093
:1009200050F041914093F100FACF44914093F1008F
:1009300031968150D0F7020F131FDD2021F0A092D5
:10094000E800D12CDCCF8091E80085FD07C0A092A3
:10095000E800DD24D394209791F2F3CF209779F625
:10096000772069F2A092E800CACF5D9884E6809370
:100970005801C7017CCFEF92FF921F93CF93DF9373
:100980001F92CDB7DEB77C018091BE0181112AC0D4
:1009900011E01093B1011093B20187EB91E09093B5
:1009A000B4018093B3011092B6011092B50189E2AF
:1009B00091E09093AE018093AD011092B901109235
:1009C000B8011092BB011092BA011093BC011093B0
:1009D000BD0181EC8093B7010E9416030E947F0144
:1009E0001093BE0182E0898341E050E0BE016F5F59
:1009F0007F4F8091B0010E94210497FD08C0809133
:100A0000B00148E050E0B70180640E9421040F90DB
:100A1000DF91CF911F91FF90EF900895E4EDF1E009
:100A2000168217821086118612861386148288ED2C
:100A300091E00C94BB04CF93DF93EC0180910B0108
:100A4000882331F083E00E9421041816190634F03F
:100A500081E090E09B838A8380E090E0DF91CF91FA
:100A60000895DC01FB0112962C91129784819581E7
:100A70002817190641F491818081813A31F49D7FD4
:100A800081E0913009F080E008958132E1F79B30F8
:100A900029F482811F968C9381E008959A3099F70A
:100AA000828150968C93F8CFDC01FB0188E480832F
:100AB00089E4818384E482831D969C911D979F70B5
:100AC0009F5B93831D968D919C9124E096958795CD
:100AD0002A95E1F78F708F5B848385E00895EF920C
:100AE000FF920F931F93CF93DF93FB012081213857
:100AF00071F52381223259F5DC0112964C91248143
:100B000035814217130619F5EC010B851C85F12C74
:100B1000E12C0115110589F0F801448155816281AC
:100B2000738180E80E94CD028F3F980749F0E80E5C
:100B3000F91ED8010D911C91ECCF81E08F87C70180
:100B4000DF91CF911F910F91FF90EF90089590E06A
:100B500080E0F6CFCF93DF93CDB7DEB769970FB6BE
:100B6000F894DEBF0FBECDBFFC01DB018C918F5F1F
:100B70008C939E012D5F3F4F8DE0D9011D928A9588
:100B8000E9F729E0298384E08A8391E09D8383E06B
:100B90008E832A8721E22B879C879D879F8722E26D
:100BA000288B27E02B8B25E02C8B8E8B20E430E0EC
:100BB000388F2F8B998F82818B8395858685998B32
:100BC0008A8B838180688D8B49E150E0BE016F5F25
:100BD0007F4F80E00E94CD0269960FB6F894DEBF89
:100BE0000FBECDBFDF91CF910895CF92DF92EF92EC
:100BF000FF920F931F93CF93DF936C01EB017B0167
:100C0000E40EF51E10E000E0CE15DF0581F06991DD
:100C10006D30D1F3D601ED91FC910190F081E02D82
:100C2000C6010995892B19F00F5F1F4FEDCFC80141
:100C3000DF91CF911F910F91FF90EF90DF90CF90B8
:100C40000895DC01683888F1685816968C911697DB
:100C5000861721F117968C9117978617F9F0189639
:100C60008C9118978617D1F019968C911997861741
:100C7000A9F01A968C911A97861781F01B968C9181
:100C80001B97861759F0FD01369690E080E0219180
:100C9000211139C08A0F9B1FFC016683CD01049688
:100CA0000E94BB0481E090E00895E62FF0E067FF2A
:100CB00011C0E058F10921E030E001C0220FEA95AF
:100CC000EAF714968C911497822B14968C931497B0
:100CD00060E0BBCFE455FF4F6491611109C081E032
:100CE00090E013969C938E93129790E080E0089585
:100CF00067FFABCF14968C911497826014968C93F7
:100D000014976F77A2CF01968630910509F0BFCF77
:100D1000E6CFEF92FF920F931F93CF938C01C62FD4
:100D20000E9421067C01C838C8F0C858F80186E046
:100D3000CC2321F09681C91301C0168281503196CF
:100D40008111F6CFC80104960E94BB04C701992700
:100D5000CF911F910F91FF90EF900895EC2FF0E04D
:100D6000C7FF0FC0E058F10981E090E001C0880F93
:100D7000EA95EAF78095F801948189238483C0E09D
:100D8000D5CFE455FF4FC491CC2301F3C7FFCECF9D
:100D9000F80184818D7F8483CF77C8CF089590E058
:100DA00080E008951F920F920FB60F9211248F9337
:100DB0009F938091E1009091E100937F9093E100F7
:100DC00083FF0FC01092E90091E09093EB00109226
:100DD000EC0092E39093ED0010925C0198E0909308
:100DE000F00082FF22C093E09093E9009091F2001E
:100DF000992319F09AE39093E80090915801992370
:100E000041F090915801915090935801911101C077
:100E10005D9A90915B01992341F090915B01915013
:100E200090935B01911101C0289A84FF18C08091B2
:100E3000E2008E7E81608093E2008091E1008F7EEF
:100E40008093E100809159018E7E806180935901E9
:100E50009F918F910F900FBE0F901F90189580FF5C
:100E6000F7CF8091E2008E7E80618093E2008091D6
:100E7000E1008E7E8093E100809159018E7E816039
:100E8000E5CF1F920F920FB60F921124CF92DF92EF
:100E9000EF92FF920F931F932F933F934F935F9384
:100EA0006F937F938F939F93AF93BF93EF93FF9332
:100EB000CF93DF93CDB7DEB76C97DEBFCDBF109277
:100EC000E9008091E80083FF25C068E0CE014596E7
:100ED0000E94090382EF8093E8008D8987FF39C063
:100EE0009091E80090FFFCCF982F907609F034C1E4
:100EF0009E894F89588D2F89F88C911131C0803887
:100F000061F580915A018093F1001092F1008EEF0B
:100F10008093E8006C960FB6F894DEBF0FBECDBF8D
:100F2000DF91CF91FF91EF91BF91AF919F918F9101
:100F30007F916F915F914F913F912F911F910F91F1
:100F4000FF90EF90DF90CF900F900FBE0F901F900B
:100F500018959EEF9093E800C7CF1092F100D5CF7F
:100F6000913059F48111D3CF4130510581F68091F0
:100F70005A018D7F80935A01CACF933049F4811171
:100F8000C6CF4130510519F680915A018260F2CFE7
:100F9000953041F48091E80080FFFCCF20682093D9
:100FA000E300B5CF963009F0A9C00B8D1C8D22E06F
:100FB0001092E9001092560110925501F2122EC0C3
:100FC00010925401109253010E942A031F8299E04B
:100FD0009983FA8291E09E8390EA98879AEF9987A5
:100FE0002091550130915601275F3F4F3C832B8361
:100FF0008D831092E90010925601109255011093C2
:1010000054010093530149E050E0BE016F5F7F4FF0
:1010100080E00E94CD020E942A0379CF10935401F0
:10102000009353010E941603DC0112960D911C914E
:101030000115110509F451C1D801ED91FC9104800D
:10104000F581E02DBE016B5E7F4FC80109950097C9
:1010500009F03EC1F80100851185EACFF3E0FF12E7
:101060000EC08F89882309F440C0823061F440E8C3
:1010700060E18DEB91E00E949A02811148CF81E2FC
:101080008093EB0047CF813029F440E86BE081EB9F
:1010900091E0F1CF833099F70E941603DC0112969C
:1010A000ED90FC908E010F5F1F4F6801E114F10479
:1010B00079F0D701ED91FC910680F781E02DB80120
:1010C000C7010995080F111DF701E084F184EECFE7
:1010D000D8011C92F60101900020E9F73197BF0179
:1010E0006C197D0940E0C601C6CF6BE971E0FB01D8
:1010F000449150E080E80E94CD0209CF973009F476
:10110000BECF983021F481E08093F10000CF993078
:1011100009F0FDCE837009F0B2CFEDE0F1E081E09F
:1011200031E096E32191222371F08093E90030931E
:10113000EB00DF0111972C912093EC009093ED00D0
:101140008F5F873079F78EE78093EA001092EA008C
:101150008F8980935C01DBCE8B8D9C8D1092E90092
:1011600010925601109255019093540180935301AF
:10117000898D811192C08E899D89913A49F481327D
:1011800009F07DCF47E050E064E071E080E0B3CF4C
:10119000913209F074CF833269F48F89988DB0E071
:1011A000A0E08093000190930101A0930201B0930D
:1011B0000301ADCE803269F48091E80082FFFCCF5C
:1011C00067E084E091E00E9409038BEF8093E800E0
:1011D0009ECE823209F09BCE8F8980930B01EEEF79
:1011E000FFE7859194918B3F9C4D51F1E0E0F8E051
:1011F0008091040190910501A0910601B091070131
:10120000803B9440A105B105F1F480910B0180FD74
:101210001AC0EE3F8AE0F80789F587E797E79183E0
:101220008083809160008093570188E19BE00FB636
:10123000F894A895809360000FBE9093600067CEED
:10124000EEEFFAE0D5CF808191818737974709F09B
:101250005ECEA89580916000886180936000809147
:10126000570180936000EE3F2AE0F20789F08091F9
:10127000FE0A9091FF0A9183808349CE80819181FB
:101280008737980751F29093FF0A8093FE0AC5CFE3
:101290001092FF0A1092FE0A3ACE0E941603DC0159
:1012A00012960D911C910115110509F4E8CED80193
:1012B000ED91FC910190F081E02DBE016B5E7F4FBE
:1012C000C8010995811123CEF80100851185EBCF66
:1012D000181619060CF41BCED2CEF1E0FF12BECECA
:1012E0006FE971E004CF1F920F920FB60F92112495
:1012F0002F933F938F939F93AF93BF9380913F0121
:1013000090914001A0914101B091420130913E0184
:1013100023E0230F2D3758F50196A11DB11D209311
:101320003E0180933F0190934001A0934101B0930F
:1013300042018091430190914401A0914501B091F7
:1013400046010196A11DB11D809343019093440174
:10135000A0934501B0934601BF91AF919F918F91AA
:101360003F912F910F900FBE0F901F90189526E878
:10137000230F0296A11DB11DD2CFCF931092600111
:1013800010925F0188EE93E0A0E0B0E080936101ED
:1013900090936201A0936301B093640187E191E0AF
:1013A00090935E0180935D018FEF9FEF90936A01B0
:1013B000809369011092D7011092D60185E391E0E4
:1013C0009093D5018093D4018091CC01811113C0F9
:1013D0001092C7011092C60188E292E09093C90171
:1013E0008093C8018FE290E09093CB018093CA0173
:1013F00081E08093CC018091BE0181112AC0C1E0BF
:10140000C093B101C093B20187EB91E09093B40116
:101410008093B3011092B6011092B50189E291E078
:101420009093AE018093AD011092B9011092B80172
:101430001092BB011092BA01C093BC01C093BD01D0
:1014400081EC8093B7010E9416030E947F01C09334
:10145000BE01E091B801F091B9013097B9F486EC82
:1014600091E09093B9018093B8018091BA01909175
:10147000BB012091CA013091CB01820F931F909341
:10148000BB018093BA01CF910895FC0180819181C5
:101490000097D9F786EC91E091838083E6CF78942A
:1014A00084B5826084BD84B5816084BD85B5826069
:1014B00085BD85B5816085BD80916E00816080931A
:1014C0006E00109281008091810082608093810083
:1014D0008091810081608093810080918000816093
:1014E0008093800080919100826080939100809130
:1014F0009100816080939100809190008160809341
:1015000090008091C10084608093C1008091C100EF
:1015100082608093C1008091C10081608093C1008E
:101520008091C30081608093C3008091C00082607D
:101530008093C0008091C20081608093C20080913E
:101540007A00846080937A0080917A008260809330
:101550007A0080917A00816080937A0080917A008D
:10156000806880937A0010925C0110925A01109268
:1015700059018091D70081608093D70080EA8093E1
:10158000D80089B5806189BD89B5826089BD09B4FB
:1015900000FEFDCF61E070E080E090E00E94EF038C
:1015A0008091D8008F7C80618093D8008091E0008A
:1015B000807F8093E0008091E1008E7E8093E10047
:1015C0008DE08093E200559A209A82E00E945701B4
:1015D00083E00E94570184E00E94570185E00E9449
:1015E000570186E00E94570187E00E94570188E07A
:1015F0000E945701C0E0D0E082E00E945B030197A7
:1016000099F460E884ED91E00E9421066EE684ED95
:1016100091E00E94210664E670E080E090E00E9484
:10162000EF030E940E05E8CF83E00E945B03019761
:1016300099F460E884ED91E00E9421066DE684ED66
:1016400091E00E94210664E670E080E090E00E9454
:10165000EF030E940E05E8CF84E00E945B03019730
:1016600099F461E884ED91E00E9421066EE684ED34
:1016700091E00E94210664E670E080E090E00E9424
:10168000EF030E940E05E8CF85E00E945B030197FF
:1016900099F461E884ED91E00E9421066DE684ED05
:1016A00091E00E94210664E670E080E090E00E94F4
:1016B000EF030E940E05E8CF86E00E945B030197CE
:1016C00099F462E884ED91E00E9421066EE684EDD3
:1016D00091E00E94210664E670E080E090E00E94C4
:1016E000EF030E940E05E8CF87E00E945B0301979D
:1016F00099F461E884ED91E00E9421066FED84ED9C
:1017000091E00E94210664E670E080E090E00E9493
:10171000EF030E940E05E8CF88E00E945B0301976B
:1017200099F461E884ED91E00E9421066EED84ED6C
:1017300091E00E94210664E670E080E090E00E9463
:10174000EF030E940E05E8CF209709F455CF0E94C1
:10175000000052CFEE0FFF1F0590F491E02D099489
:04176000F894FFCF2B
:10176400FFFFFFFF00E100000000000000C18081D6
:1017740000000000000000EF011B050403050252F5
:101784000210022E02000000003105AA056F055464
:0E17940005000000008906F505CF06CE060010
:00000001FF
